{
  "_format": "hh-sol-artifact-1",
  "contractName": "WWWIII",
  "sourceName": "contracts/WWWIII.sol",
  "abi": [
    {
      "inputs": [
        {
          "internalType": "address",
          "name": "_devFund",
          "type": "address"
        },
        {
          "internalType": "address",
          "name": "_community",
          "type": "address"
        },
        {
          "internalType": "address",
          "name": "_team",
          "type": "address"
        },
        {
          "internalType": "address",
          "name": "_liquidity",
          "type": "address"
        },
        {
          "internalType": "address",
          "name": "_reserve",
          "type": "address"
        }
      ],
      "stateMutability": "nonpayable",
      "type": "constructor"
    },
    {
      "inputs": [
        {
          "internalType": "address",
          "name": "spender",
          "type": "address"
        },
        {
          "internalType": "uint256",
          "name": "allowance",
          "type": "uint256"
        },
        {
          "internalType": "uint256",
          "name": "needed",
          "type": "uint256"
        }
      ],
      "name": "ERC20InsufficientAllowance",
      "type": "error"
    },
    {
      "inputs": [
        {
          "internalType": "address",
          "name": "sender",
          "type": "address"
        },
        {
          "internalType": "uint256",
          "name": "balance",
          "type": "uint256"
        },
        {
          "internalType": "uint256",
          "name": "needed",
          "type": "uint256"
        }
      ],
      "name": "ERC20InsufficientBalance",
      "type": "error"
    },
    {
      "inputs": [
        {
          "internalType": "address",
          "name": "approver",
          "type": "address"
        }
      ],
      "name": "ERC20InvalidApprover",
      "type": "error"
    },
    {
      "inputs": [
        {
          "internalType": "address",
          "name": "receiver",
          "type": "address"
        }
      ],
      "name": "ERC20InvalidReceiver",
      "type": "error"
    },
    {
      "inputs": [
        {
          "internalType": "address",
          "name": "sender",
          "type": "address"
        }
      ],
      "name": "ERC20InvalidSender",
      "type": "error"
    },
    {
      "inputs": [
        {
          "internalType": "address",
          "name": "spender",
          "type": "address"
        }
      ],
      "name": "ERC20InvalidSpender",
      "type": "error"
    },
    {
      "inputs": [
        {
          "internalType": "address",
          "name": "owner",
          "type": "address"
        }
      ],
      "name": "OwnableInvalidOwner",
      "type": "error"
    },
    {
      "inputs": [
        {
          "internalType": "address",
          "name": "account",
          "type": "address"
        }
      ],
      "name": "OwnableUnauthorizedAccount",
      "type": "error"
    },
    {
      "anonymous": false,
      "inputs": [
        {
          "indexed": true,
          "internalType": "address",
          "name": "owner",
          "type": "address"
        },
        {
          "indexed": true,
          "internalType": "address",
          "name": "spender",
          "type": "address"
        },
        {
          "indexed": false,
          "internalType": "uint256",
          "name": "value",
          "type": "uint256"
        }
      ],
      "name": "Approval",
      "type": "event"
    },
    {
      "anonymous": false,
      "inputs": [
        {
          "indexed": true,
          "internalType": "address",
          "name": "previousOwner",
          "type": "address"
        },
        {
          "indexed": true,
          "internalType": "address",
          "name": "newOwner",
          "type": "address"
        }
      ],
      "name": "OwnershipTransferred",
      "type": "event"
    },
    {
      "anonymous": false,
      "inputs": [
        {
          "indexed": true,
          "internalType": "address",
          "name": "from",
          "type": "address"
        },
        {
          "indexed": true,
          "internalType": "address",
          "name": "to",
          "type": "address"
        },
        {
          "indexed": false,
          "internalType": "uint256",
          "name": "value",
          "type": "uint256"
        }
      ],
      "name": "Transfer",
      "type": "event"
    },
    {
      "inputs": [],
      "name": "CLIFF_DURATION",
      "outputs": [
        {
          "internalType": "uint256",
          "name": "",
          "type": "uint256"
        }
      ],
      "stateMutability": "view",
      "type": "function"
    },
    {
      "inputs": [],
      "name": "TOTAL_SUPPLY",
      "outputs": [
        {
          "internalType": "uint256",
          "name": "",
          "type": "uint256"
        }
      ],
      "stateMutability": "view",
      "type": "function"
    },
    {
      "inputs": [],
      "name": "VESTING_DURATION",
      "outputs": [
        {
          "internalType": "uint256",
          "name": "",
          "type": "uint256"
        }
      ],
      "stateMutability": "view",
      "type": "function"
    },
    {
      "inputs": [
        {
          "internalType": "address",
          "name": "owner",
          "type": "address"
        },
        {
          "internalType": "address",
          "name": "spender",
          "type": "address"
        }
      ],
      "name": "allowance",
      "outputs": [
        {
          "internalType": "uint256",
          "name": "",
          "type": "uint256"
        }
      ],
      "stateMutability": "view",
      "type": "function"
    },
    {
      "inputs": [
        {
          "internalType": "address",
          "name": "spender",
          "type": "address"
        },
        {
          "internalType": "uint256",
          "name": "value",
          "type": "uint256"
        }
      ],
      "name": "approve",
      "outputs": [
        {
          "internalType": "bool",
          "name": "",
          "type": "bool"
        }
      ],
      "stateMutability": "nonpayable",
      "type": "function"
    },
    {
      "inputs": [
        {
          "internalType": "address",
          "name": "account",
          "type": "address"
        }
      ],
      "name": "balanceOf",
      "outputs": [
        {
          "internalType": "uint256",
          "name": "",
          "type": "uint256"
        }
      ],
      "stateMutability": "view",
      "type": "function"
    },
    {
      "inputs": [
        {
          "internalType": "uint256",
          "name": "amount",
          "type": "uint256"
        }
      ],
      "name": "burn",
      "outputs": [],
      "stateMutability": "nonpayable",
      "type": "function"
    },
    {
      "inputs": [],
      "name": "community",
      "outputs": [
        {
          "internalType": "address",
          "name": "",
          "type": "address"
        }
      ],
      "stateMutability": "view",
      "type": "function"
    },
    {
      "inputs": [],
      "name": "decimals",
      "outputs": [
        {
          "internalType": "uint8",
          "name": "",
          "type": "uint8"
        }
      ],
      "stateMutability": "view",
      "type": "function"
    },
    {
      "inputs": [],
      "name": "devFund",
      "outputs": [
        {
          "internalType": "address",
          "name": "",
          "type": "address"
        }
      ],
      "stateMutability": "view",
      "type": "function"
    },
    {
      "inputs": [],
      "name": "liquidity",
      "outputs": [
        {
          "internalType": "address",
          "name": "",
          "type": "address"
        }
      ],
      "stateMutability": "view",
      "type": "function"
    },
    {
      "inputs": [],
      "name": "name",
      "outputs": [
        {
          "internalType": "string",
          "name": "",
          "type": "string"
        }
      ],
      "stateMutability": "view",
      "type": "function"
    },
    {
      "inputs": [],
      "name": "owner",
      "outputs": [
        {
          "internalType": "address",
          "name": "",
          "type": "address"
        }
      ],
      "stateMutability": "view",
      "type": "function"
    },
    {
      "inputs": [],
      "name": "releasableTeamTokens",
      "outputs": [
        {
          "internalType": "uint256",
          "name": "",
          "type": "uint256"
        }
      ],
      "stateMutability": "view",
      "type": "function"
    },
    {
      "inputs": [],
      "name": "releaseTeamTokens",
      "outputs": [],
      "stateMutability": "nonpayable",
      "type": "function"
    },
    {
      "inputs": [],
      "name": "renounceOwnership",
      "outputs": [],
      "stateMutability": "nonpayable",
      "type": "function"
    },
    {
      "inputs": [],
      "name": "reserve",
      "outputs": [
        {
          "internalType": "address",
          "name": "",
          "type": "address"
        }
      ],
      "stateMutability": "view",
      "type": "function"
    },
    {
      "inputs": [],
      "name": "symbol",
      "outputs": [
        {
          "internalType": "string",
          "name": "",
          "type": "string"
        }
      ],
      "stateMutability": "view",
      "type": "function"
    },
    {
      "inputs": [],
      "name": "team",
      "outputs": [
        {
          "internalType": "address",
          "name": "",
          "type": "address"
        }
      ],
      "stateMutability": "view",
      "type": "function"
    },
    {
      "inputs": [],
      "name": "teamReleased",
      "outputs": [
        {
          "internalType": "uint256",
          "name": "",
          "type": "uint256"
        }
      ],
      "stateMutability": "view",
      "type": "function"
    },
    {
      "inputs": [],
      "name": "totalSupply",
      "outputs": [
        {
          "internalType": "uint256",
          "name": "",
          "type": "uint256"
        }
      ],
      "stateMutability": "view",
      "type": "function"
    },
    {
      "inputs": [
        {
          "internalType": "address",
          "name": "to",
          "type": "address"
        },
        {
          "internalType": "uint256",
          "name": "value",
          "type": "uint256"
        }
      ],
      "name": "transfer",
      "outputs": [
        {
          "internalType": "bool",
          "name": "",
          "type": "bool"
        }
      ],
      "stateMutability": "nonpayable",
      "type": "function"
    },
    {
      "inputs": [
        {
          "internalType": "address",
          "name": "from",
          "type": "address"
        },
        {
          "internalType": "address",
          "name": "to",
          "type": "address"
        },
        {
          "internalType": "uint256",
          "name": "value",
          "type": "uint256"
        }
      ],
      "name": "transferFrom",
      "outputs": [
        {
          "internalType": "bool",
          "name": "",
          "type": "bool"
        }
      ],
      "stateMutability": "nonpayable",
      "type": "function"
    },
    {
      "inputs": [
        {
          "internalType": "address",
          "name": "newOwner",
          "type": "address"
        }
      ],
      "name": "transferOwnership",
      "outputs": [],
      "stateMutability": "nonpayable",
      "type": "function"
    },
    {
      "inputs": [],
      "name": "vestingStart",
      "outputs": [
        {
          "internalType": "uint256",
          "name": "",
          "type": "uint256"
        }
      ],
      "stateMutability": "view",
      "type": "function"
    }
  ],
  "bytecode": "0x6101406040523480156200001257600080fd5b5060405162002ad338038062002ad38339818101604052810190620000389190620009bd565b336040518060400160405280600681526020017f57575749494900000000000000000000000000000000000000000000000000008152506040518060400160405280600681526020017f57575749494900000000000000000000000000000000000000000000000000008152508160039081620000b6919062000cbf565b508060049081620000c8919062000cbf565b505050600073ffffffffffffffffffffffffffffffffffffffff168173ffffffffffffffffffffffffffffffffffffffff1603620001405760006040517f1e4fbdf700000000000000000000000000000000000000000000000000000000815260040162000137919062000db7565b60405180910390fd5b6200015181620005d060201b60201c565b50600073ffffffffffffffffffffffffffffffffffffffff168573ffffffffffffffffffffffffffffffffffffffff1603620001c4576040517f08c379a0000000000000000000000000000000000000000000000000000000008152600401620001bb9062000e35565b60405180910390fd5b600073ffffffffffffffffffffffffffffffffffffffff168473ffffffffffffffffffffffffffffffffffffffff160362000236576040517f08c379a00000000000000000000000000000000000000000000000000000000081526004016200022d9062000ea7565b60405180910390fd5b600073ffffffffffffffffffffffffffffffffffffffff168373ffffffffffffffffffffffffffffffffffffffff1603620002a8576040517f08c379a00000000000000000000000000000000000000000000000000000000081526004016200029f9062000f19565b60405180910390fd5b600073ffffffffffffffffffffffffffffffffffffffff168273ffffffffffffffffffffffffffffffffffffffff16036200031a576040517f08c379a0000000000000000000000000000000000000000000000000000000008152600401620003119062000f8b565b60405180910390fd5b600073ffffffffffffffffffffffffffffffffffffffff168173ffffffffffffffffffffffffffffffffffffffff16036200038c576040517f08c379a0000000000000000000000000000000000000000000000000000000008152600401620003839062000ffd565b60405180910390fd5b8473ffffffffffffffffffffffffffffffffffffffff1660808173ffffffffffffffffffffffffffffffffffffffff16815250508373ffffffffffffffffffffffffffffffffffffffff1660a08173ffffffffffffffffffffffffffffffffffffffff16815250508273ffffffffffffffffffffffffffffffffffffffff1660c08173ffffffffffffffffffffffffffffffffffffffff16815250508173ffffffffffffffffffffffffffffffffffffffff1660e08173ffffffffffffffffffffffffffffffffffffffff16815250508073ffffffffffffffffffffffffffffffffffffffff166101008173ffffffffffffffffffffffffffffffffffffffff1681525050426101208181525050620004d6608051606460286b033b2e3c9fd0803ce8000000620004be91906200104e565b620004ca9190620010c8565b6200069660201b60201c565b6200051260a0516064601e6b033b2e3c9fd0803ce8000000620004fa91906200104e565b620005069190620010c8565b6200069660201b60201c565b6200054c306064600f6b033b2e3c9fd0803ce80000006200053491906200104e565b620005409190620010c8565b6200069660201b60201c565b6200058860e0516064600a6b033b2e3c9fd0803ce80000006200057091906200104e565b6200057c9190620010c8565b6200069660201b60201c565b620005c561010051606460056b033b2e3c9fd0803ce8000000620005ad91906200104e565b620005b99190620010c8565b6200069660201b60201c565b5050505050620011a6565b6000600560009054906101000a900473ffffffffffffffffffffffffffffffffffffffff16905081600560006101000a81548173ffffffffffffffffffffffffffffffffffffffff021916908373ffffffffffffffffffffffffffffffffffffffff1602179055508173ffffffffffffffffffffffffffffffffffffffff168173ffffffffffffffffffffffffffffffffffffffff167f8be0079c531659141344cd1fd0a4f28419497f9722a3daafe3b4186f6b6457e060405160405180910390a35050565b600073ffffffffffffffffffffffffffffffffffffffff168273ffffffffffffffffffffffffffffffffffffffff16036200070b5760006040517fec442f0500000000000000000000000000000000000000000000000000000000815260040162000702919062000db7565b60405180910390fd5b6200071f600083836200072360201b60201c565b5050565b600073ffffffffffffffffffffffffffffffffffffffff168373ffffffffffffffffffffffffffffffffffffffff1603620007795780600260008282546200076c919062001100565b925050819055506200084f565b60008060008573ffffffffffffffffffffffffffffffffffffffff1673ffffffffffffffffffffffffffffffffffffffff1681526020019081526020016000205490508181101562000808578381836040517fe450d38c000000000000000000000000000000000000000000000000000000008152600401620007ff939291906200114c565b60405180910390fd5b8181036000808673ffffffffffffffffffffffffffffffffffffffff1673ffffffffffffffffffffffffffffffffffffffff16815260200190815260200160002081905550505b600073ffffffffffffffffffffffffffffffffffffffff168273ffffffffffffffffffffffffffffffffffffffff16036200089a5780600260008282540392505081905550620008e7565b806000808473ffffffffffffffffffffffffffffffffffffffff1673ffffffffffffffffffffffffffffffffffffffff168152602001908152602001600020600082825401925050819055505b8173ffffffffffffffffffffffffffffffffffffffff168373ffffffffffffffffffffffffffffffffffffffff167fddf252ad1be2c89b69c2b068fc378daa952ba7f163c4a11628f55a4df523b3ef8360405162000946919062001189565b60405180910390a3505050565b600080fd5b600073ffffffffffffffffffffffffffffffffffffffff82169050919050565b6000620009858262000958565b9050919050565b620009978162000978565b8114620009a357600080fd5b50565b600081519050620009b7816200098c565b92915050565b600080600080600060a08688031215620009dc57620009db62000953565b5b6000620009ec88828901620009a6565b9550506020620009ff88828901620009a6565b945050604062000a1288828901620009a6565b935050606062000a2588828901620009a6565b925050608062000a3888828901620009a6565b9150509295509295909350565b600081519050919050565b7f4e487b7100000000000000000000000000000000000000000000000000000000600052604160045260246000fd5b7f4e487b7100000000000000000000000000000000000000000000000000000000600052602260045260246000fd5b6000600282049050600182168062000ac757607f821691505b60208210810362000add5762000adc62000a7f565b5b50919050565b60008190508160005260206000209050919050565b60006020601f8301049050919050565b600082821b905092915050565b60006008830262000b477fffffffffffffffffffffffffffffffffffffffffffffffffffffffffffffffff8262000b08565b62000b53868362000b08565b95508019841693508086168417925050509392505050565b6000819050919050565b6000819050919050565b600062000ba062000b9a62000b948462000b6b565b62000b75565b62000b6b565b9050919050565b6000819050919050565b62000bbc8362000b7f565b62000bd462000bcb8262000ba7565b84845462000b15565b825550505050565b600090565b62000beb62000bdc565b62000bf881848462000bb1565b505050565b5b8181101562000c205762000c1460008262000be1565b60018101905062000bfe565b5050565b601f82111562000c6f5762000c398162000ae3565b62000c448462000af8565b8101602085101562000c54578190505b62000c6c62000c638562000af8565b83018262000bfd565b50505b505050565b600082821c905092915050565b600062000c946000198460080262000c74565b1980831691505092915050565b600062000caf838362000c81565b9150826002028217905092915050565b62000cca8262000a45565b67ffffffffffffffff81111562000ce65762000ce562000a50565b5b62000cf2825462000aae565b62000cff82828562000c24565b600060209050601f83116001811462000d37576000841562000d22578287015190505b62000d2e858262000ca1565b86555062000d9e565b601f19841662000d478662000ae3565b60005b8281101562000d715784890151825560018201915060208501945060208101905062000d4a565b8683101562000d91578489015162000d8d601f89168262000c81565b8355505b6001600288020188555050505b505050505050565b62000db18162000978565b82525050565b600060208201905062000dce600083018462000da6565b92915050565b600082825260208201905092915050565b7f5a65726f20616464726573733a2064657646756e640000000000000000000000600082015250565b600062000e1d60158362000dd4565b915062000e2a8262000de5565b602082019050919050565b6000602082019050818103600083015262000e508162000e0e565b9050919050565b7f5a65726f20616464726573733a20636f6d6d756e697479000000000000000000600082015250565b600062000e8f60178362000dd4565b915062000e9c8262000e57565b602082019050919050565b6000602082019050818103600083015262000ec28162000e80565b9050919050565b7f5a65726f20616464726573733a207465616d0000000000000000000000000000600082015250565b600062000f0160128362000dd4565b915062000f0e8262000ec9565b602082019050919050565b6000602082019050818103600083015262000f348162000ef2565b9050919050565b7f5a65726f20616464726573733a206c6971756964697479000000000000000000600082015250565b600062000f7360178362000dd4565b915062000f808262000f3b565b602082019050919050565b6000602082019050818103600083015262000fa68162000f64565b9050919050565b7f5a65726f20616464726573733a20726573657276650000000000000000000000600082015250565b600062000fe560158362000dd4565b915062000ff28262000fad565b602082019050919050565b60006020820190508181036000830152620010188162000fd6565b9050919050565b7f4e487b7100000000000000000000000000000000000000000000000000000000600052601160045260246000fd5b60006200105b8262000b6b565b9150620010688362000b6b565b9250828202620010788162000b6b565b915082820484148315176200109257620010916200101f565b5b5092915050565b7f4e487b7100000000000000000000000000000000000000000000000000000000600052601260045260246000fd5b6000620010d58262000b6b565b9150620010e28362000b6b565b925082620010f557620010f462001099565b5b828204905092915050565b60006200110d8262000b6b565b91506200111a8362000b6b565b92508282019050808211156200113557620011346200101f565b5b92915050565b620011468162000b6b565b82525050565b600060608201905062001163600083018662000da6565b6200117260208301856200113b565b6200118160408301846200113b565b949350505050565b6000602082019050620011a060008301846200113b565b92915050565b60805160a05160c05160e05161010051610120516118c86200120b6000396000818161054e01528181610624015261080e015260006109ea015260006107bb01526000818161078501526108d001526000610a0e0152600061084801526118c86000f3fe608060405234801561001057600080fd5b50600436106101735760003560e01c806370a08231116100de578063a9059cbb11610097578063dc1fb5a511610071578063dc1fb5a51461040c578063dd62ed3e1461042a578063f2fde38b1461045a578063f6f0fa8d1461047657610173565b8063a9059cbb146103a0578063b3daa652146103d0578063cd3293de146103ee57610173565b806370a08231146102ee578063715018a61461031e57806385f2aef2146103285780638da5cb5b14610346578063902d55a51461036457806395d89b411461038257610173565b806323b872dd1161013057806323b872dd1461022a578063254800d41461025a578063313ce5671461027857806342966c68146102965780634390d2a8146102b25780634cfc4d30146102d057610173565b806306fdde0314610178578063095ea7b31461019657806313987b83146101c657806314c411c7146101e457806318160ddd146101ee5780631a6865021461020c575b600080fd5b610180610494565b60405161018d9190611341565b60405180910390f35b6101b060048036038101906101ab91906113fc565b610526565b6040516101bd9190611457565b60405180910390f35b6101ce610549565b6040516101db9190611481565b60405180910390f35b6101ec610620565b005b6101f66107af565b6040516102039190611481565b60405180910390f35b6102146107b9565b60405161022191906114ab565b60405180910390f35b610244600480360381019061023f91906114c6565b6107dd565b6040516102519190611457565b60405180910390f35b61026261080c565b60405161026f9190611481565b60405180910390f35b610280610830565b60405161028d9190611535565b60405180910390f35b6102b060048036038101906102ab9190611550565b610839565b005b6102ba610846565b6040516102c791906114ab565b60405180910390f35b6102d861086a565b6040516102e59190611481565b60405180910390f35b6103086004803603810190610303919061157d565b610872565b6040516103159190611481565b60405180910390f35b6103266108ba565b005b6103306108ce565b60405161033d91906114ab565b60405180910390f35b61034e6108f2565b60405161035b91906114ab565b60405180910390f35b61036c61091c565b6040516103799190611481565b60405180910390f35b61038a61092c565b6040516103979190611341565b60405180910390f35b6103ba60048036038101906103b591906113fc565b6109be565b6040516103c79190611457565b60405180910390f35b6103d86109e1565b6040516103e59190611481565b60405180910390f35b6103f66109e8565b60405161040391906114ab565b60405180910390f35b610414610a0c565b60405161042191906114ab565b60405180910390f35b610444600480360381019061043f91906115aa565b610a30565b6040516104519190611481565b60405180910390f35b610474600480360381019061046f919061157d565b610ab7565b005b61047e610b3d565b60405161048b9190611481565b60405180910390f35b6060600380546104a390611619565b80601f01602080910402602001604051908101604052809291908181526020018280546104cf90611619565b801561051c5780601f106104f15761010080835404028352916020019161051c565b820191906000526020600020905b8154815290600101906020018083116104ff57829003601f168201915b5050505050905090565b600080610531610b43565b905061053e818585610b4b565b600191505092915050565b6000807f0000000000000000000000000000000000000000000000000000000000000000426105789190611679565b905062ed4e0081101561058f57600091505061061d565b60006303c2670082106105c8576064600f6b033b2e3c9fd0803ce80000006105b791906116ad565b6105c1919061171e565b905061060a565b6303c26700826064600f6b033b2e3c9fd0803ce80000006105e991906116ad565b6105f3919061171e565b6105fd91906116ad565b610607919061171e565b90505b600654816106189190611679565b925050505b90565b60007f00000000000000000000000000000000000000000000000000000000000000004261064e9190611679565b905062ed4e00811015610696576040517f08c379a000000000000000000000000000000000000000000000000000000000815260040161068d9061179b565b60405180910390fd5b60006303c2670082106106cf576064600f6b033b2e3c9fd0803ce80000006106be91906116ad565b6106c8919061171e565b9050610711565b6303c26700826064600f6b033b2e3c9fd0803ce80000006106f091906116ad565b6106fa919061171e565b61070491906116ad565b61070e919061171e565b90505b6000600654826107219190611679565b905060008111610766576040517f08c379a000000000000000000000000000000000000000000000000000000000815260040161075d90611807565b60405180910390fd5b80600660008282546107789190611827565b925050819055506107aa307f000000000000000000000000000000000000000000000000000000000000000083610b5d565b505050565b6000600254905090565b7f000000000000000000000000000000000000000000000000000000000000000081565b6000806107e8610b43565b90506107f5858285610c51565b610800858585610b5d565b60019150509392505050565b7f000000000000000000000000000000000000000000000000000000000000000081565b60006012905090565b6108433382610ce6565b50565b7f000000000000000000000000000000000000000000000000000000000000000081565b6303c2670081565b60008060008373ffffffffffffffffffffffffffffffffffffffff1673ffffffffffffffffffffffffffffffffffffffff168152602001908152602001600020549050919050565b6108c2610d68565b6108cc6000610def565b565b7f000000000000000000000000000000000000000000000000000000000000000081565b6000600560009054906101000a900473ffffffffffffffffffffffffffffffffffffffff16905090565b6b033b2e3c9fd0803ce800000081565b60606004805461093b90611619565b80601f016020809104026020016040519081016040528092919081815260200182805461096790611619565b80156109b45780601f10610989576101008083540402835291602001916109b4565b820191906000526020600020905b81548152906001019060200180831161099757829003601f168201915b5050505050905090565b6000806109c9610b43565b90506109d6818585610b5d565b600191505092915050565b62ed4e0081565b7f000000000000000000000000000000000000000000000000000000000000000081565b7f000000000000000000000000000000000000000000000000000000000000000081565b6000600160008473ffffffffffffffffffffffffffffffffffffffff1673ffffffffffffffffffffffffffffffffffffffff16815260200190815260200160002060008373ffffffffffffffffffffffffffffffffffffffff1673ffffffffffffffffffffffffffffffffffffffff16815260200190815260200160002054905092915050565b610abf610d68565b600073ffffffffffffffffffffffffffffffffffffffff168173ffffffffffffffffffffffffffffffffffffffff1603610b315760006040517f1e4fbdf7000000000000000000000000000000000000000000000000000000008152600401610b2891906114ab565b60405180910390fd5b610b3a81610def565b50565b60065481565b600033905090565b610b588383836001610eb5565b505050565b600073ffffffffffffffffffffffffffffffffffffffff168373ffffffffffffffffffffffffffffffffffffffff1603610bcf5760006040517f96c6fd1e000000000000000000000000000000000000000000000000000000008152600401610bc691906114ab565b60405180910390fd5b600073ffffffffffffffffffffffffffffffffffffffff168273ffffffffffffffffffffffffffffffffffffffff1603610c415760006040517fec442f05000000000000000000000000000000000000000000000000000000008152600401610c3891906114ab565b60405180910390fd5b610c4c83838361108c565b505050565b6000610c5d8484610a30565b90507fffffffffffffffffffffffffffffffffffffffffffffffffffffffffffffffff811015610ce05781811015610cd0578281836040517ffb8f41b2000000000000000000000000000000000000000000000000000000008152600401610cc79392919061185b565b60405180910390fd5b610cdf84848484036000610eb5565b5b50505050565b600073ffffffffffffffffffffffffffffffffffffffff168273ffffffffffffffffffffffffffffffffffffffff1603610d585760006040517f96c6fd1e000000000000000000000000000000000000000000000000000000008152600401610d4f91906114ab565b60405180910390fd5b610d648260008361108c565b5050565b610d70610b43565b73ffffffffffffffffffffffffffffffffffffffff16610d8e6108f2565b73ffffffffffffffffffffffffffffffffffffffff1614610ded57610db1610b43565b6040517f118cdaa7000000000000000000000000000000000000000000000000000000008152600401610de491906114ab565b60405180910390fd5b565b6000600560009054906101000a900473ffffffffffffffffffffffffffffffffffffffff16905081600560006101000a81548173ffffffffffffffffffffffffffffffffffffffff021916908373ffffffffffffffffffffffffffffffffffffffff1602179055508173ffffffffffffffffffffffffffffffffffffffff168173ffffffffffffffffffffffffffffffffffffffff167f8be0079c531659141344cd1fd0a4f28419497f9722a3daafe3b4186f6b6457e060405160405180910390a35050565b600073ffffffffffffffffffffffffffffffffffffffff168473ffffffffffffffffffffffffffffffffffffffff1603610f275760006040517fe602df05000000000000000000000000000000000000000000000000000000008152600401610f1e91906114ab565b60405180910390fd5b600073ffffffffffffffffffffffffffffffffffffffff168373ffffffffffffffffffffffffffffffffffffffff1603610f995760006040517f94280d62000000000000000000000000000000000000000000000000000000008152600401610f9091906114ab565b60405180910390fd5b81600160008673ffffffffffffffffffffffffffffffffffffffff1673ffffffffffffffffffffffffffffffffffffffff16815260200190815260200160002060008573ffffffffffffffffffffffffffffffffffffffff1673ffffffffffffffffffffffffffffffffffffffff168152602001908152602001600020819055508015611086578273ffffffffffffffffffffffffffffffffffffffff168473ffffffffffffffffffffffffffffffffffffffff167f8c5be1e5ebec7d5bd14f71427d1e84f3dd0314c0f7b2291e5b200ac8c7c3b9258460405161107d9190611481565b60405180910390a35b50505050565b600073ffffffffffffffffffffffffffffffffffffffff168373ffffffffffffffffffffffffffffffffffffffff16036110de5780600260008282546110d29190611827565b925050819055506111b1565b60008060008573ffffffffffffffffffffffffffffffffffffffff1673ffffffffffffffffffffffffffffffffffffffff1681526020019081526020016000205490508181101561116a578381836040517fe450d38c0000000000000000000000000000000000000000000000000000000081526004016111619392919061185b565b60405180910390fd5b8181036000808673ffffffffffffffffffffffffffffffffffffffff1673ffffffffffffffffffffffffffffffffffffffff16815260200190815260200160002081905550505b600073ffffffffffffffffffffffffffffffffffffffff168273ffffffffffffffffffffffffffffffffffffffff16036111fa5780600260008282540392505081905550611247565b806000808473ffffffffffffffffffffffffffffffffffffffff1673ffffffffffffffffffffffffffffffffffffffff168152602001908152602001600020600082825401925050819055505b8173ffffffffffffffffffffffffffffffffffffffff168373ffffffffffffffffffffffffffffffffffffffff167fddf252ad1be2c89b69c2b068fc378daa952ba7f163c4a11628f55a4df523b3ef836040516112a49190611481565b60405180910390a3505050565b600081519050919050565b600082825260208201905092915050565b60005b838110156112eb5780820151818401526020810190506112d0565b60008484015250505050565b6000601f19601f8301169050919050565b6000611313826112b1565b61131d81856112bc565b935061132d8185602086016112cd565b611336816112f7565b840191505092915050565b6000602082019050818103600083015261135b8184611308565b905092915050565b600080fd5b600073ffffffffffffffffffffffffffffffffffffffff82169050919050565b600061139382611368565b9050919050565b6113a381611388565b81146113ae57600080fd5b50565b6000813590506113c08161139a565b92915050565b6000819050919050565b6113d9816113c6565b81146113e457600080fd5b50565b6000813590506113f6816113d0565b92915050565b6000806040838503121561141357611412611363565b5b6000611421858286016113b1565b9250506020611432858286016113e7565b9150509250929050565b60008115159050919050565b6114518161143c565b82525050565b600060208201905061146c6000830184611448565b92915050565b61147b816113c6565b82525050565b60006020820190506114966000830184611472565b92915050565b6114a581611388565b82525050565b60006020820190506114c0600083018461149c565b92915050565b6000806000606084860312156114df576114de611363565b5b60006114ed868287016113b1565b93505060206114fe868287016113b1565b925050604061150f868287016113e7565b9150509250925092565b600060ff82169050919050565b61152f81611519565b82525050565b600060208201905061154a6000830184611526565b92915050565b60006020828403121561156657611565611363565b5b6000611574848285016113e7565b91505092915050565b60006020828403121561159357611592611363565b5b60006115a1848285016113b1565b91505092915050565b600080604083850312156115c1576115c0611363565b5b60006115cf858286016113b1565b92505060206115e0858286016113b1565b9150509250929050565b7f4e487b7100000000000000000000000000000000000000000000000000000000600052602260045260246000fd5b6000600282049050600182168061163157607f821691505b602082108103611644576116436115ea565b5b50919050565b7f4e487b7100000000000000000000000000000000000000000000000000000000600052601160045260246000fd5b6000611684826113c6565b915061168f836113c6565b92508282039050818111156116a7576116a661164a565b5b92915050565b60006116b8826113c6565b91506116c3836113c6565b92508282026116d1816113c6565b915082820484148315176116e8576116e761164a565b5b5092915050565b7f4e487b7100000000000000000000000000000000000000000000000000000000600052601260045260246000fd5b6000611729826113c6565b9150611734836113c6565b925082611744576117436116ef565b5b828204905092915050565b7f436c696666206e6f742072656163686564000000000000000000000000000000600082015250565b60006117856011836112bc565b91506117908261174f565b602082019050919050565b600060208201905081810360008301526117b481611778565b9050919050565b7f4e6f7468696e6720746f2072656c656173650000000000000000000000000000600082015250565b60006117f16012836112bc565b91506117fc826117bb565b602082019050919050565b60006020820190508181036000830152611820816117e4565b9050919050565b6000611832826113c6565b915061183d836113c6565b92508282019050808211156118555761185461164a565b5b92915050565b6000606082019050611870600083018661149c565b61187d6020830185611472565b61188a6040830184611472565b94935050505056fea2646970667358221220f3921bdcdb6b2429b7a2eaa650b812ac0a3a9e92ad923d753401f721f1fc280a64736f6c63430008140033",
  "linkReferences": {},
  "deployedLinkReferences": {}
}